:100000000C94B3000C94D4000C94D4000C94D40041
:100010000C94D4000C94F1020C94CC020C94D400F7
:100020000C94D4000C94D4000C94D4000C94D40000
:100030000C94D4000C94D4000C94D4000C94D400F0
:100040000C94D4000C94D4000C94D4000C94D400E0
:100050000C94D4000C94D4000C94D4000C94D400D0
:100060000C94D4000C94D4000C947C020C949B024D
:100070000C94D4000C94D4000C94D4000C94D400B0
:100080000C94D4000C94D4000C94D4000C94D400A0
:100090000C94D4000C94D4000C94D4000C94D40090
:1000A0000C94D4000C94D4000C94D4000C94D40080
:1000B0000C94D4000C94D4000C94D4000C94D40070
:1000C0000C94D4000C94D4000C94D4000C94D40060
:1000D0000C94D4000C94D4000C94D4000C94D40050
:1000E0000C94D40007634236B79BD8A71A396856D8
:1000F00018AEBAAB558C1D3CB7CC5763BD6DEDFD4A
:10010000753EF6177231BF000000803F0800000006
:10011000BE922449123EABAAAA2ABECDCCCC4C3EFC
:1001200000000080BEABAAAAAA3E00000000BF00EB
:100130000000803F0000000000084178D3BB4387E7
:10014000D1133D190E3CC3BD4282AD2B3E68EC82FB
:1001500076BED98FE1A93E4C80EFFFBE01C4FF7F80
:100160003F000000000011241FBECFEFD1E2DEBF30
:10017000CDBF00E00CBF12E0A0E0B2E0E8E3FFE397
:1001800000E00BBF02C007900D92A033B107D9F772
:1001900012E0A0E3B2E001C01D92A335B107E1F780
:1001A0000E94E81A0C949A1F0C94000086E69EE0C8
:1001B0000197F1F700004098419880E388B9429A8E
:1001C000EFEFF7E43197F1F700C000004298E6E660
:1001D000FEE03197F1F700004098419888B9429AC3
:1001E000EFEFF7E43197F1F700C000004298E6E640
:1001F000FEE03197F1F700004098419888B9429AA3
:100200008FEF97E40197F1F700C000004298E6E60F
:10021000FEE03197F1F700004098419880E288B9FC
:10022000429A8FEF97E40197F1F700C000004298DF
:10023000089598B19F7098B998B1282F207F922B7C
:1002400098B940984198429AEFEFF7E43197F1F767
:1002500000C00000429898B19F7098B998B18295FB
:10026000807F892B88B940984198429A8FEF97E414
:100270000197F1F700C00000429808950E94D6004F
:1002800086E69EE00197F1F7000088E20E941901DE
:1002900081E00E94190186E00E9419018EE00E940F
:1002A000190180E80E941901089598B19F7098B9CA
:1002B00098B1282F207F922B98B9409A4198429A62
:1002C000EFEFF7E43197F1F700C00000429898B1E2
:1002D0009F7098B998B18295807F892B88B9409A90
:1002E0004198429A8FEF97E40197F1F700C0000020
:1002F0004298089580E80E9419010895CF93DF93F2
:10030000EC018881882331F021960E945501899162
:100310008823D9F7DF91CF910895823079F0833027
:1003200018F48130C9F405C0833069F08430A1F439
:100330000FC0862F81580E9419010895862F81547D
:100340000E9419010895862F8D560E941901089563
:10035000862F8D520E94190108950F931F93CF93FA
:10036000DF938A01E901882311F0662319F40E94C2
:100370007A0102C00E948D01C530D10571F4C80117
:1003800060E177E20E94861FCB01C09690934802FD
:10039000809347020E94550103C0C430D105B9F4CF
:1003A000C80168EE73E00E94861FCB017093520271
:1003B000609351026AE070E00E94861FC09690939D
:1003C0004A02809349020E94550181E001C080E009
:1003D000C330D10511F08130B1F4C80164E670E09A
:1003E0000E94861FCB0170935202609351026AE013
:1003F00070E00E94861FC09690934C0280934B023F
:100400000E94550181E0C230D10511F08130B1F474
:100410002AE030E0C801B9010E94861FCB01709329
:10042000520260935102B9010E94861FC0969093B8
:100430004E0280934D020E94550181E0C130D105EA
:1004400011F0813061F4C8016AE070E00E94861FFB
:10045000C0969093500280934F020E945501C6307F
:10046000D1051CF085E40E945501DF91CF911F91C9
:100470000F9108953B9A43980895259A2D9A0895CF
:10048000269A2E9A0895279A2F9A08956C98749A0E
:1004900008956D98759A089587B1876F87B988B167
:1004A000807888B9089510BA11BA10920701109295
:1004B0000801089581B18F6081B982B1807F82B9CE
:1004C000EAE0F1E0808188618083EBE0F1E0808107
:1004D000886180830895E1ECF0E0108280E28093EF
:1004E000C00086E08093C2008FE58093C400109224
:1004F000C50088E6808308951F920F920FB60F9271
:1005000011248F939F93AF93BF9380913A0280936E
:10051000C6008FEF9FE3A2E081509040A040E1F73A
:1005200000C00000BF91AF919F918F910F900FBEBF
:100530000F901F9018951F920F920FB60F921124D3
:1005400010923A020F900FBE0F901F9018950E94C4
:100550003A020E943D020E9440020E9443020E9411
:100560004C020E9453020E945A020E9446020E94BC
:1005700049020895F894EAE6F0E080818260808381
:10058000EC9A78940895F894EAE6F0E08081886027
:100590008083ED9A789408951F920F920FB60F9270
:1005A00011248F939F93AF93BF9380913F029091BB
:1005B0004002A0914102B09142020196A11DB11DDD
:1005C00080933F0290934002A0934102B093420275
:1005D000BF91AF919F918F910F900FBE0F901F9081
:1005E00018951F920F920FB60F9211248F939F931D
:1005F000AF93BF938091430290914402A091450232
:10060000B09146020196A11DB11D809343029093C3
:100610004402A0934502B0934602BF91AF919F91CF
:100620008F910F900FBE0F901F901895E1E2F1E0AF
:1006300010828FEF8093250191E090932401109216
:1006400029018093280110922B0180932A01109296
:100650002D0180932C0189EA809320018BE0808317
:100660000895E1E8F0E010828CEF8093850081E04E
:100670008093840093E0909389008FEF80938800AB
:1006800090938B0080938A0090938D0080938C00D0
:1006900090938700809386008BEA8093800010926D
:1006A00082008CE080830895EAE7F0E010821092E7
:1006B0007B0080E280937C0080E880BF86E88083B6
:1006C0000895883018F098E090937B0087708062DE
:1006D00080937C00EAE7F0E0808180648083808101
:1006E00084FFFDCF80917900EAE7F0E0908190618E
:1006F000908310927B000895CF93DF93D82FC62F5D
:10070000842F0E946103482F809339028D2F6C2F14
:1007100050E023E030E00E94AD01DF91CF910895D9
:100720000F931F93682F70E080E090E00E94301DCF
:100730002FEE39EC43E95FE30E94211EB62FA72F6D
:10074000382F292F60E070E080E89FE3422F0B2FC5
:100750001A2F232F342FA90198010E94971C2AE9F0
:1007600039EF4EE255E40E94BE1D20E030E040E249
:1007700051E40E94BE1D0E94FF1C882777FD8095D2
:10078000982F0E94321D0E94FF1C862F972F23E076
:100790008132920710F080E293E01F910F9108954B
:1007A0008093280160932A01089592B1907F8F7001
:1007B000982B92B9089586E00E94D503089589E0A8
:1007C0000E94D503089580E00E94D50308950F93F9
:1007D0001F93CF93BC0180E090E00E94301D28E47D
:1007E00031EE42E850E40E94971C0E94041DDC0197
:1007F000CB01A0E0B0E010923F02109240021092B4
:10080000410210924202109243021092440210924E
:10081000450210924602F1E0C0E040913F02509143
:100820004002609141027091420200914302109196
:1008300044022091450230914602EF2F4817590794
:100840006A077B0708F4EC2FEE2349F44F2F0817B3
:1008500019072A073B0708F44C2F4423F1F20E94A2
:10086000E303CF911F910F91089585E00E94D50376
:100870000895CF93DF93EC010E943504CE010E94CE
:10088000E703DF91CF9108958AE00E94D503089590
:10089000CF93DF93EC010E944404CE010E94E70352
:1008A000DF91CF91089584E00E94D503089582E0FE
:1008B0000E94D503089581E00E94D503089588E041
:1008C0000E94D5030895F8940E946B020E94A7022B
:1008D0000E9454030E9416030E94BA020E94C3029F
:1008E0000E9431037894089510928900682F70E077
:1008F00080E090E00E94301D2BE734E14EEE5FE394
:100900000E94971C20E030E04CE052E40E94331C2F
:100910000E94041D60938800089510928B00682F38
:1009200070E080E090E00E94301D2BE734E14EEE55
:100930005FE30E94971C20E030E04CE052E40E940C
:10094000331C0E94041D60938A00089510928D004C
:10095000682F70E080E090E00E94301D2BE734E1CA
:100960004EEE5FE30E94971C20E030E04CE052E442
:100970000E94331C0E94041D60938C00089583E044
:10098000809389008FEF80938800089583E080939F
:100990008B008FEF80938A00089583E080938D0011
:1009A0008FEF80938C00089583E00E946103809311
:1009B000320282E00E9461038093310281E00E9452
:1009C00061038093300290913102913268F020915E
:1009D0003202203248F4803238F40E94DB0386E988
:1009E0006EE80E94D003E0CF20913202213278F0ED
:1009F000903268F40E94DB0388E268E70E94D0032B
:100A00008FEF97ED0197F1F700C00000CDCF813255
:100A100078F0903268F40E94DB0388E768E20E9475
:100A2000D0038FEF97ED0197F1F700C00000BCCF26
:100A3000913208F4B9CF213208F4B6CF813208F4EC
:100A4000B3CF0E94E30380E090E008950E94350454
:100A500083E00E9461038093320282E00E9461037E
:100A60008093310281E00E946103809330021092F2
:100A7000330281E061E043E00E947C0381E065E0B5
:100A800042E00E947C0381E069E041E00E947C0337
:100A90008EE66EE60E94D00386E696E50197F1F7B2
:100AA000000080913102803498F20E94E30380E0DC
:100AB00060E00E94D00308950E945F0483E00E94DA
:100AC00061038093320282E00E94610380933102CD
:100AD00081E00E946103809330021092330281E032
:100AE00061E043E00E947C0381E065E042E00E9417
:100AF0007C0381E069E041E00E947C0380E062E8E1
:100B00000E94D00386E696E50197F1F700008091F8
:100B100031028B3098F280E060E00E94D0030895AB
:100B20000E94440483E00E9461038093320282E0C9
:100B30000E9461038093310281E00E9461038093EF
:100B400030021092330281E061E043E00E947C03B6
:100B500081E065E042E00E947C0381E069E041E0E1
:100B60000E947C038EE66EE60E94D00386E696E540
:100B70000197F1F7000080913102803498F280E013
:100B800060E00E94D003089586B1886088B9089516
:100B900086B1877F88B90895BC0180E090E00E940B
:100BA000301D25EE30ED4AEA50E40E94971C0E9469
:100BB000041D462F572F682F792F10923F02109255
:100BC0004002109241021092420280913F029091A5
:100BD0004002A0914102B0914202481759076A07AA
:100BE0007B0798F70E94E3030895CF93DF93EC010E
:100BF0000E94DB03CE010E94CC05DF91CF910895C6
:100C0000CF93DF93EC010E94DF03CE010E94CC055D
:100C1000DF91CF91089589E590E00E94F5050E944B
:100C2000E3038FEF9FE7A6E181509040A040E1F7FA
:100C300000C000008AE590E00E9448048FEF9FE327
:100C4000A2E081509040A040E1F700C000000E9467
:100C5000E303089589E590E00E94F5050E94E3030F
:100C60008FEF9FE7A6E181509040A040E1F700C0E0
:100C700000008AE590E00E9439048FEF9FE3A2E034
:100C800081509040A040E1F700C000000E94E303C3
:100C9000089583E00E9461038093320282E00E9403
:100CA00061038093310281E00E94610380933002EE
:100CB00090913102913288F090913202913268F035
:100CC000813258F00E94E30380913B0290913C02F4
:100CD000019690933C0280933B0280913B0290915D
:100CE0003C02089510923C0210923B0208958EE15E
:100CF00090E00E94F5058FEF9FE3A2E081509040C5
:100D0000A040E1F700C0000083E00E9461038093EF
:100D1000320282E00E9461038093310281E00E94EE
:100D200061038093300290913102913268F02091FA
:100D30003202203248F4803238F40E94DB0382E829
:100D40006AE70E94D003E0CF20913202213278F08E
:100D5000903268F40E94DB0388E268E70E94D003C7
:100D6000AFEFB7ED1197F1F700C00000CDCF8132A2
:100D700078F0903268F40E94DB0388E768E20E9412
:100D8000D0038FEF97ED0197F1F700C00000BCCFC3
:100D9000913208F4B9CF213208F4B6CF813208F489
:100DA000B3CF0E94E3030895CF93DF93EC018EE16C
:100DB00090E00E94F5050E94E3038FEF9FE7A6E114
:100DC00081509040A040E1F700C00000209791F4CE
:100DD0000E9426058EEB6EEB0E94D0038FEF9FE3FF
:100DE000A2E081509040A040E1F700C000000E94C6
:100DF000E3031CC00E9426058FEF9FE3A2E0815011
:100E00009040A040E1F700C000000E94260580EA63
:100E100060EA0E94D0038FEF9FE3A2E081509040F0
:100E2000A040E1F700C000000E94E303DF91CF91F2
:100E30000895CF93DF93EC018EE190E00E94F505D9
:100E40000E94E3038FEF9FE7A6E181509040A0400E
:100E5000E1F700C00000209791F40E94900580EA1D
:100E600060EA0E94D0038FEF9FE3A2E081509040A0
:100E7000A040E1F700C000000E94E3031CC00E94F4
:100E800090058FEF9FE3A2E081509040A040E1F7F2
:100E900000C000000E94900580EA60EA0E94D00332
:100EA0008FEF9FE3A2E081509040A040E1F700C0A7
:100EB00000000E94E303DF91CF910895009791F421
:100EC0000E94260580EA60EA0E94D0038FEF9FE32C
:100ED000A2E081509040A040E1F700C000000E94D5
:100EE000E30308950E9426058FEF9FE3A2E081505F
:100EF0009040A040E1F700C000000E94260580EA73
:100F000060EA0E94D0038FEF9FE3A2E081509040FF
:100F1000A040E1F700C000000E94E303089500979D
:100F200091F40E94900580EA60EA0E94D0038FEF5E
:100F30009FE3A2E081509040A040E1F700C0000094
:100F40000E94E30308950E9490058FEF9FE3A2E0C3
:100F500081509040A040E1F700C000000E94900541
:100F600080EA60EA0E94D0038FEF9FE3A2E0815005
:100F70009040A040E1F700C000000E94E303089504
:100F800080E00E9474048FEF9FE7A4E081509040BE
:100F9000A040E1F700C0000080E00E948D048FEFC8
:100FA0009FE7A4E081509040A040E1F700C000001E
:100FB00089E10E9474048FEF9FE7A4E08150904084
:100FC000A040E1F700C0000008958EE10E948D046A
:100FD0008FEF9FEFA8E081509040A040E1F700C064
:100FE000000008950F931F93CF93DF93CBE0D0E0E1
:100FF00000E012E040913B0250913C0281E061E050
:1010000023E030E00E94AD0180913B0290913C02D0
:10101000009719F40E94E30399C18130910501F50D
:101020000E940B068FEF9FE3A2E081509040A0400A
:10103000E1F700C000000E94D40480913B0290912F
:101040003C02019690933C0280933B028FEF9FE31A
:10105000A2E081509040A040E1F700C0000073C1C1
:1010600082309105A9F40E9477068FEF9FE3A2E0FA
:1010700081509040A040E1F700C0000080913B0209
:1010800090913C02019690933C0280933B025BC19D
:101090008330910511F580E090E00E94D4068FEF37
:1010A0009FE3A2E081509040A040E1F700C0000023
:1010B0000E94D4048FEF9FE3A2E081509040A040B3
:1010C000E1F700C0000080913B0290913C02019644
:1010D00090933C0280933B0236C184309105A9F481
:1010E0000E9477068FEF9FE3A2E081509040A040DE
:1010F000E1F700C0000080913B0290913C02019614
:1011000090933C0280933B021EC18530910509F00B
:1011100051C0D8018C9180933A028CE390E00E94F8
:10112000F5058FEF9FE3A2E081509040A040E1F7EA
:1011300000C000008DE290E00E9448048FEF9FE322
:10114000A2E081509040A040E1F700C000000E9462
:1011500090058FEF9FE7A6E181509040A040E1F716
:1011600000C000000E94C00788E76CE30E94D00323
:1011700080E090E00E948F078FEF9FE3A2E0815014
:101180009040A040E1F700C000000E94D4048FEF1F
:101190009FE3A2E081509040A040E1F700C0000032
:1011A00080913B0290913C02019690933C02809387
:1011B0003B02C9C086309105A9F40E9477068FEFE3
:1011C0009FE3A2E081509040A040E1F700C0000002
:1011D00080913B0290913C02019690933C02809357
:1011E0003B02B1C08730910531F588E76CE30E947E
:1011F000D00380E090E00E9419078FEF9FE3A2E008
:1012000081509040A040E1F700C000000E94D4044B
:101210008FEF9FE3A2E081509040A040E1F700C033
:10122000000080913B0290913C02019690933C0219
:1012300080933B0288C088309105A9F40E9477060C
:101240008FEF9FE3A2E081509040A040E1F700C003
:10125000000080913B0290913C02019690933C02E9
:1012600080933B0270C08930910579F588E590E064
:101270000E94F5058FEF9FE3A2E081509040A040CF
:10128000E1F700C000000E940B068FEF9FE3A2E091
:1012900081509040A040E1F700C000000E949005FE
:1012A0008FEF9FE3A2E081509040A040E1F700C0A3
:1012B00000000E94D40480913B0290913C02019670
:1012C00090933C0280933B023EC08A309105D9F551
:1012D0000E9477068FEF9FE3A2E081509040A040EC
:1012E000E1F700C000000E94E507D8018C918C5FF7
:1012F00080933A028DE290E00E9439048FEF9FE3E1
:10130000A2E081509040A040E1F700C0000080E0E2
:1013100090E00E945E078FEF9FE3A2E08150904033
:10132000A040E1F700C000000E94D4048FEF9FE3CB
:10133000A2E081509040A040E1F700C000000E9470
:1013400077060E947206219709F054CEDF91CF9163
:101350001F910F9108950F931F93CF93DF93C9E0CF
:10136000D0E002E012E040913B0250913C0281E06B
:1013700061E023E030E00E94AD0180913B0290915A
:101380003C02009719F40E94E30346C181309105A5
:1013900001F50E940B068FEF9FE3A2E08150904081
:1013A000A040E1F700C000000E94D40480913B02FD
:1013B00090913C02019690933C0280933B028FEF08
:1013C0009FE3A2E081509040A040E1F700C0000000
:1013D00020C182309105A9F40E9477068FEF9FE328
:1013E000A2E081509040A040E1F700C00000809151
:1013F0003B0290913C02019690933C0280933B0209
:1014000008C183309105C9F480E090E00E94D406C1
:101410008FEF9FE3A2E081509040A040E1F700C031
:1014200000000E94D40480913B0290913C020196FE
:1014300090933C0280933B02ECC08430910509F00C
:1014400046C0D8018C9180933A0288E76CE30E94F1
:10145000D00380E090E00E9419078FEF9FEFA0EE8D
:1014600081509040A040E1F700C000000E94C007FA
:101470008DE290E00E9448048FEF9FE3A2E081504C
:101480009040A040E1F700C0000080E090E00E94A2
:101490008F078FEF9FE3A2E081509040A040E1F7DB
:1014A00000C000000E94D4048FEF9FE3A2E08150AF
:1014B0009040A040E1F700C0000080913B02909175
:1014C0003C02019690933C0280933B02A2C085307F
:1014D000910531F588E76CE30E94D00380E090E04D
:1014E0000E9419078FEF9FE3A2E081509040A04037
:1014F000E1F700C000000E94D4048FEF9FE3A2E058
:1015000081509040A040E1F700C0000080913B0274
:1015100090913C02019690933C0280933B0279C0EB
:1015200086309105A9F40E9477068FEF9FE3A2E031
:1015300081509040A040E1F700C0000080913B0244
:1015400090913C02019690933C0280933B0261C0D3
:101550008730910511F50E940B068FEF9FE3A2E003
:1015600081509040A040E1F700C000000E9490052B
:101570008FEF9FE3A2E081509040A040E1F700C0D0
:1015800000000E94D40480913B0290913C0201969D
:1015900090933C0280933B023CC088309105C9F592
:1015A0000E9477068FEF9FE3A2E081509040A04019
:1015B000E1F700C000000E94E507D8018C918C5F24
:1015C00080933A028DE290E00E9439048FEF9FE30E
:1015D000A2E081509040A040E1F700C000000E94CE
:1015E00026058FEF9FE3A2E081509040A040E1F7F5
:1015F00000C000000E94D4048FEF9FE3A2E081505E
:101600009040A040E1F700C000000E9477060E94D1
:101610007206219709F0A7CEDF91CF911F910F910C
:1016200008950F931F93CF93DF93C9E0D0E004E0B8
:1016300012E040913B0250913C0281E061E023E0E6
:1016400030E00E94AD0180913B0290913C020097F6
:1016500019F40E94E3033FC18130910501F50E9416
:101660002A068FEF9FE3A2E081509040A040E1F76F
:1016700000C000000E94D40480913B0290913C0283
:10168000019690933C0280933B028FEF9FE3A2E090
:1016900081509040A040E1F700C0000019C18230A5
:1016A0009105A9F40E9477068FEF9FE3A2E0815095
:1016B0009040A040E1F700C0000080913B02909173
:1016C0003C02019690933C0280933B0201C183301F
:1016D0009105C9F480E090E00E9419078FEF9FE325
:1016E000A2E081509040A040E1F700C000000E94BD
:1016F000D40480913B0290913C02019690933C026D
:1017000080933B02E5C08430910509F046C0D801C2
:101710008C9180933A028CE368E70E94D00380E0CA
:1017200090E00E94D4068FEF9FEFA0EE8150904092
:10173000A040E1F700C000000E94C0078DE290E0E9
:101740000E9439048FEF9FE3A2E081509040A040B7
:10175000E1F700C0000080E090E00E945E078FEF9C
:101760009FE3A2E081509040A040E1F700C000005C
:101770000E94D4048FEF9FE3A2E081509040A040EC
:10178000E1F700C0000080913B0290913C0201967D
:1017900090933C0280933B029BC08530910531F5CC
:1017A0008CE368E70E94D00380E090E00E94190774
:1017B0008FEF9FE3A2E081509040A040E1F700C08E
:1017C00000000E94D4048FEF9FE3A2E0815090407C
:1017D000A040E1F700C0000080913B0290913C02E4
:1017E000019690933C0280933B0272C08630910533
:1017F000A9F40E9477068FEF9FE3A2E0815090400A
:10180000A040E1F700C0000080913B0290913C02B3
:10181000019690933C0280933B025AC08730910519
:10182000C9F40E940B068FEF9FE3A2E08150904025
:10183000A040E1F700C000000E9490050E94D4047F
:1018400080913B0290913C02019690933C028093E0
:101850003B023EC088309105D9F50E9477068FEF94
:101860009FE3A2E081509040A040E1F700C000005B
:101870000E94E507D8018C918C5F80933A028DE23B
:1018800090E00E9439048FEF9FE3A2E081509040E6
:10189000A040E1F700C0000080E090E00E945E07F9
:1018A0008FEF9FE3A2E081509040A040E1F700C09D
:1018B00000000E94D4048FEF9FE3A2E0815090408B
:1018C000A040E1F700C000000E9477060E94720667
:1018D000219709F0AECEDF91CF911F910F9108951E
:1018E0000F931F93CF93DF93CBE0D0E006E012E09D
:1018F00040913B0250913C0281E061E023E030E006
:101900000E94AD0180913B0290913C02009719F436
:101910000E94E30378C18130910501F50E942A06F7
:101920008FEF9FE3A2E081509040A040E1F700C01C
:1019300000000E94D40480913B0290913C020196E9
:1019400090933C0280933B028FEF9FE3A2E0815093
:101950009040A040E1F700C0000052C182309105E4
:10196000A9F40E9477068FEF9FE3A2E08150904098
:10197000A040E1F700C0000080913B0290913C0242
:10198000019690933C0280933B023AC183309105CB
:1019900011F580E090E00E9419078FEF9FE3A2E02D
:1019A00081509040A040E1F700C000000E94D404A4
:1019B0008FEF9FE3A2E081509040A040E1F700C08C
:1019C000000080913B0290913C02019690933C0272
:1019D00080933B0215C184309105A9F40E947706DB
:1019E0008FEF9FE3A2E081509040A040E1F700C05C
:1019F000000080913B0290913C02019690933C0242
:101A000080933B02FDC08530910509F046C0D801A6
:101A10008C9180933A028CE368E70E94D00380E0C7
:101A200090E00E94D4068FEF9FEFA0EE815090408F
:101A3000A040E1F700C000000E94C0078DE290E0E6
:101A40000E9439048FEF9FE3A2E081509040A040B4
:101A5000E1F700C0000080E090E00E945E078FEF99
:101A60009FE3A2E081509040A040E1F700C0000059
:101A70000E94D4048FEF9FE3A2E081509040A040E9
:101A8000E1F700C0000080913B0290913C0201967A
:101A900090933C0280933B02B3C08630910561F481
:101AA0000E9477068FEF9FE3A2E081509040A04014
:101AB000E1F700C00000A4C08730910531F58CE348
:101AC00068E70E94D00380E090E00E9419078FEF42
:101AD0009FE3A2E081509040A040E1F700C00000E9
:101AE0000E94D4048FEF9FE3A2E081509040A04079
:101AF000E1F700C0000080913B0290913C0201960A
:101B000090933C0280933B027BC088309105A9F4FE
:101B10000E9477068FEF9FE3A2E081509040A040A3
:101B2000E1F700C0000080913B0290913C020196D9
:101B300090933C0280933B0263C08930910511F57C
:101B40000E940B068FEF9FE3A2E081509040A040DF
:101B5000E1F700C000000E9490058FEF9FE3A2E034
:101B600081509040A040E1F700C000000E94D404E2
:101B700080913B0290913C02019690933C028093AD
:101B80003B023EC08A309105D9F50E9477068FEF5F
:101B90009FE3A2E081509040A040E1F700C0000028
:101BA0000E94E507D8018C918C5F80933A028DE208
:101BB00090E00E9439048FEF9FE3A2E081509040B3
:101BC000A040E1F700C0000080E090E00E945E07C6
:101BD0008FEF9FE3A2E081509040A040E1F700C06A
:101BE00000000E94D4048FEF9FE3A2E08150904058
:101BF000A040E1F700C000000E9477060E94720634
:101C0000219709F075CEDF91CF911F910F91089523
:101C10000F931F93CF93DF93CCE0D0E008E012E066
:101C200040913B0250913C0281E061E023E030E0D2
:101C30000E94AD0180913B0290913C02009719F403
:101C40000E94E30382C181309105A9F40E947706C6
:101C50008FEF9FE3A2E081509040A040E1F700C0E9
:101C6000000080913B0290913C02019690933C02CF
:101C700080933B0267C182309105A9F40E947706E8
:101C80008FEF9FE3A2E081509040A040E1F700C0B9
:101C9000000080913B0290913C02019690933C029F
:101CA00080933B024FC183309105C9F480E090E0FE
:101CB0000E94D4068FEF9FE3A2E081509040A040A5
:101CC000E1F700C000000E94D40480913B02909193
:101CD0003C02019690933C0280933B0233C18430D6
:101CE0009105A9F40E9477068FEF9FE3A2E081504F
:101CF0009040A040E1F700C0000080913B0290912D
:101D00003C02019690933C0280933B021BC18530BC
:101D1000910509F046C0D8018C9180933A0288E77A
:101D20006CE30E94D00380E090E00E9419078FEFDF
:101D30009FEFA0EE81509040A040E1F700C000006E
:101D40000E94C0078DE290E00E9448048FEF9FE35D
:101D5000A2E081509040A040E1F700C0000080E088
:101D600090E00E948F078FEF9FE3A2E081509040A8
:101D7000A040E1F700C000000E94D4048FEF9FE371
:101D8000A2E081509040A040E1F700C000008091A7
:101D90003B0290913C02019690933C0280933B025F
:101DA000D1C086309105A9F40E9477068FEF9FE39A
:101DB000A2E081509040A040E1F700C00000809177
:101DC0003B0290913C02019690933C0280933B022F
:101DD000B9C08730910531F588E76CE30E94D003E4
:101DE00080E090E00E9419078FEF9FE3A2E081500E
:101DF0009040A040E1F700C000000E94D4048FEFA3
:101E00009FE3A2E081509040A040E1F700C00000B5
:101E100080913B0290913C02019690933C0280930A
:101E20003B0290C088309105A9F40E9477068FEF9D
:101E30009FE3A2E081509040A040E1F700C0000085
:101E400080913B0290913C02019690933C028093DA
:101E50003B0278C089309105A9F40E9477068FEF84
:101E60009FE3A2E081509040A040E1F700C0000055
:101E700080913B0290913C02019690933C028093AA
:101E80003B0260C08A309105A9F40E9477068FEF6B
:101E90009FE3A2E081509040A040E1F700C0000025
:101EA00080913B0290913C02019690933C0280937A
:101EB0003B0248C08B30910509F044C00E94E50701
:101EC000D8018C918C5F80933A028DE290E00E9461
:101ED00039048FEF9FE3A2E081509040A040E1F7EA
:101EE00000C0000080E090E00E945E078FEF9FE35B
:101EF000A2E081509040A040E1F700C000000E94A5
:101F0000D4048FEF9FE3A2E081509040A040E1F71E
:101F100000C000000E9477068FEF9FE3A2E081508F
:101F20009040A040E1F700C000000E9477068FEFCC
:101F30009FE3A2E081509040A040E1F700C0000084
:101F40000E947206219709F06BCEDF91CF911F910D
:101F50000F9108950F931F93CF93DF93CAE0D0E0C2
:101F60000AE012E040913B0250913C0281E061E0C6
:101F700023E030E00E94AD0180913B0290913C0251
:101F8000009719F40E94E30352C181309105A9F42E
:101F90000E9477068FEF9FE3A2E081509040A0401F
:101FA000E1F700C0000080913B0290913C02019655
:101FB00090933C0280933B0237C182309105A9F493
:101FC0000E9477068FEF9FE3A2E081509040A040EF
:101FD000E1F700C0000080913B0290913C02019625
:101FE00090933C0280933B021FC183309105C9F45A
:101FF00080E090E00E94D4068FEF9FE3A2E0815042
:102000009040A040E1F700C000000E94D4048091FD
:102010003B0290913C02019690933C0280933B02DC
:1020200003C18430910509F046C0D8018C9180939A
:102030003A0288E76CE30E94D00380E090E00E94BF
:1020400019078FEF9FEFA0EE81509040A040E1F77D
:1020500000C000000E94C0078DE290E00E9448048A
:102060008FEF9FE3A2E081509040A040E1F700C0D5
:10207000000080E090E00E948F078FEF9FE3A2E0D6
:1020800081509040A040E1F700C000000E94D404BD
:102090008FEF9FE3A2E081509040A040E1F700C0A5
:1020A000000080913B0290913C02019690933C028B
:1020B00080933B02B9C08530910531F588E76CE328
:1020C0000E94D00380E090E00E9419078FEF9FE309
:1020D000A2E081509040A040E1F700C000000E94C3
:1020E000D4048FEF9FE3A2E081509040A040E1F73D
:1020F00000C0000080913B0290913C0201969093B9
:102100003C0280933B0290C086309105A9F40E9466
:1021100077068FEF9FE3A2E081509040A040E1F767
:1021200000C0000080913B0290913C020196909388
:102130003C0280933B0278C087309105A9F40E944D
:1021400077068FEF9FE3A2E081509040A040E1F737
:1021500000C0000080913B0290913C020196909358
:102160003C0280933B0260C088309105A9F40E9434
:1021700077068FEF9FE3A2E081509040A040E1F707
:1021800000C0000080913B0290913C020196909328
:102190003C0280933B0248C08930910509F044C05D
:1021A0000E94E507D8018C918C5F80933A028DE202
:1021B00090E00E9439048FEF9FE3A2E081509040AD
:1021C000A040E1F700C0000080E090E00E945E07C0
:1021D0008FEF9FE3A2E081509040A040E1F700C064
:1021E00000000E94D4048FEF9FE3A2E08150904052
:1021F000A040E1F700C000000E9477068FEF9FE348
:10220000A2E081509040A040E1F700C000000E9491
:1022100077068FEF9FE3A2E081509040A040E1F766
:1022200000C000000E947206219709F09BCEDF914A
:10223000CF911F910F9108950F931F93CF93DF9329
:10224000CAE0D0E00CE012E040913B0250913C0229
:1022500081E061E023E030E00E94AD0180913B022B
:1022600090913C02009719F40E94E30352C181301F
:102270009105A9F40E9477068FEF9FE3A2E08150B9
:102280009040A040E1F700C0000080913B02909197
:102290003C02019690933C0280933B0237C182300E
:1022A0009105A9F40E9477068FEF9FE3A2E0815089
:1022B0009040A040E1F700C0000080913B02909167
:1022C0003C02019690933C0280933B021FC18330F5
:1022D0009105C9F480E090E00E9419078FEF9FE319
:1022E000A2E081509040A040E1F700C000000E94B1
:1022F000D40480913B0290913C02019690933C0261
:1023000080933B0203C18430910509F046C0D80197
:102310008C9180933A028CE368E70E94D00380E0BE
:1023200090E00E94D4068FEF9FEFA0EE8150904086
:10233000A040E1F700C000000E94C0078DE290E0DD
:102340000E9439048FEF9FE3A2E081509040A040AB
:10235000E1F700C0000080E090E00E945E078FEF90
:102360009FE3A2E081509040A040E1F700C0000050
:102370000E94D4048FEF9FE3A2E081509040A040E0
:10238000E1F700C0000080913B0290913C02019671
:1023900090933C0280933B02B9C08530910531F5A2
:1023A0008CE368E70E94D00380E090E00E94D406AE
:1023B0008FEF9FE3A2E081509040A040E1F700C082
:1023C00000000E94D4048FEF9FE3A2E08150904070
:1023D000A040E1F700C0000080913B0290913C02D8
:1023E000019690933C0280933B0290C08630910509
:1023F000A9F40E9477068FEF9FE3A2E081509040FE
:10240000A040E1F700C0000080913B0290913C02A7
:10241000019690933C0280933B0278C087309105EF
:10242000A9F40E9477068FEF9FE3A2E081509040CD
:10243000A040E1F700C0000080913B0290913C0277
:10244000019690933C0280933B0260C088309105D6
:10245000A9F40E9477068FEF9FE3A2E0815090409D
:10246000A040E1F700C0000080913B0290913C0247
:10247000019690933C0280933B0248C089309105BD
:1024800009F044C00E94E507D8018C918C5F8093CD
:102490003A028DE290E00E9439048FEF9FE3A2E0C0
:1024A00081509040A040E1F700C0000080E090E043
:1024B0000E945E078FEF9FE3A2E081509040A04012
:1024C000E1F700C000000E94D4048FEF9FE3A2E078
:1024D00081509040A040E1F700C000000E947706C4
:1024E0008FEF9FE3A2E081509040A040E1F700C051
:1024F00000000E9477068FEF9FE3A2E0815090409A
:10250000A040E1F700C000000E947206219709F088
:102510009BCEDF91CF911F910F9108950F931F9341
:10252000CF93DF93CCE0D0E00EE012E040913B028D
:1025300050913C0281E061E023E030E00E94AD0177
:1025400080913B0290913C02009719F40E94E303B2
:102550008BC181309105A9F40E9477068FEF9FE32C
:10256000A2E081509040A040E1F700C000008091BF
:102570003B0290913C02019690933C0280933B0277
:1025800070C182309105A9F40E9477068FEF9FE316
:10259000A2E081509040A040E1F700C0000080918F
:1025A0003B0290913C02019690933C0280933B0247
:1025B00058C18330910511F580E090E00E94190721
:1025C0008FEF9FE3A2E081509040A040E1F700C070
:1025D00000000E94D4048FEF9FE3A2E0815090405E
:1025E000A040E1F700C0000080913B0290913C02C6
:1025F000019690933C0280933B0233C18430910555
:10260000A9F40E9477068FEF9FE3A2E081509040EB
:10261000A040E1F700C0000080913B0290913C0295
:10262000019690933C0280933B021BC1853091053B
:1026300009F046C0D8018C9180933A028CE368E798
:102640000E94D00380E090E00E94D4068FEF9FEFBD
:10265000A0EE81509040A040E1F700C000000E9431
:10266000C0078DE290E00E9439048FEF9FE3A2E063
:1026700081509040A040E1F700C0000080E090E071
:102680000E945E078FEF9FE3A2E081509040A04040
:10269000E1F700C000000E94D4048FEF9FE3A2E0A6
:1026A00081509040A040E1F700C0000080913B02C3
:1026B00090913C02019690933C0280933B02D1C0E2
:1026C00086309105A9F40E9477068FEF9FE3A2E080
:1026D00081509040A040E1F700C0000080913B0293
:1026E00090913C02019690933C0280933B02B9C0CA
:1026F0008730910531F58CE368E70E94D00380E0D4
:1027000090E00E94D4068FEF9FE3A2E081509040BA
:10271000A040E1F700C000000E94D4048FEF9FE3C7
:10272000A2E081509040A040E1F700C000008091FD
:102730003B0290913C02019690933C0280933B02B5
:1027400090C088309105A9F40E9477068FEF9FE32F
:10275000A2E081509040A040E1F700C000008091CD
:102760003B0290913C02019690933C0280933B0285
:1027700078C089309105A9F40E9477068FEF9FE316
:10278000A2E081509040A040E1F700C0000080919D
:102790003B0290913C02019690933C0280933B0255
:1027A00060C08A309105A9F40E9477068FEF9FE3FD
:1027B000A2E081509040A040E1F700C0000080916D
:1027C0003B0290913C02019690933C0280933B0225
:1027D00048C08B30910509F044C00E94E507D8013C
:1027E0008C918C5F80933A028DE290E00E943904D4
:1027F0008FEF9FE3A2E081509040A040E1F700C03E
:10280000000080E090E00E945E078FEF9FE3A2E06F
:1028100081509040A040E1F700C000000E94D40425
:102820008FEF9FE3A2E081509040A040E1F700C00D
:1028300000000E9477068FEF9FE3A2E08150904056
:10284000A040E1F700C000000E9477068FEF9FE3F1
:10285000A2E081509040A040E1F700C000000E943B
:102860007206219709F062CEDF91CF911F910F91EF
:1028700008950F931F93CF93DF93CCE0D0E000E156
:1028800012E040913B0250913C0281E061E023E084
:1028900030E00E94AD0180913B0290913C02009794
:1028A00019F40E94E303A4C18130910501F50E944F
:1028B0000B068FEF9FE3A2E081509040A040E1F72C
:1028C00000C000000E94D40480913B0290913C0221
:1028D000019690933C0280933B028FEF9FE3A2E02E
:1028E00081509040A040E1F700C000007EC18230DE
:1028F0009105A9F40E9477068FEF9FE3A2E0815033
:102900009040A040E1F700C0000080913B02909110
:102910003C02019690933C0280933B0266C1833057
:10292000910511F580E090E00E94D4068FEF9FE3BF
:10293000A2E081509040A040E1F700C000000E945A
:10294000D4048FEF9FE3A2E081509040A040E1F7D4
:1029500000C0000080913B0290913C020196909350
:102960003C0280933B0241C184309105A9F40E944E
:1029700077068FEF9FE3A2E081509040A040E1F7FF
:1029800000C0000080913B0290913C020196909320
:102990003C0280933B0229C18530910509F046C075
:1029A000D8018C9180933A0288E76CE30E94D003AF
:1029B00080E090E00E9419078FEF9FEFA0EE81501A
:1029C0009040A040E1F700C000000E94C0078DE2E7
:1029D00090E00E9448048FEF9FE3A2E08150904076
:1029E000A040E1F700C0000080E090E00E948F0767
:1029F0008FEF9FE3A2E081509040A040E1F700C03C
:102A000000000E94D4048FEF9FE3A2E08150904029
:102A1000A040E1F700C0000080913B0290913C0291
:102A2000019690933C0280933B02DFC08630910573
:102A3000A9F40E9477068FEF9FE3A2E081509040B7
:102A4000A040E1F700C0000080913B0290913C0261
:102A5000019690933C0280933B02C7C0873091055A
:102A600031F58CE368E70E94D00380E090E00E949B
:102A700019078FEF9FE3A2E081509040A040E1F75B
:102A800000C000000E94D4048FEF9FE3A2E08150B9
:102A90009040A040E1F700C0000080913B0290917F
:102AA0003C02019690933C0280933B029EC088308A
:102AB0009105A9F40E9477068FEF9FE3A2E0815071
:102AC0009040A040E1F700C0000080913B0290914F
:102AD0003C02019690933C0280933B0286C0893071
:102AE000910569F580E090E00E94D4068FEF9FE3A6
:102AF000A2E081509040A040E1F700C000000E9499
:102B000026058FEF9FE3A2E081509040A040E1F7BF
:102B100000C000000E94D4048FEF9FE3A2E0815028
:102B20009040A040E1F700C0000080913B029091EE
:102B30003C02019690933C0280933B0256C08A303F
:102B40009105A9F40E9477068FEF9FE3A2E08150E0
:102B50009040A040E1F700C0000080913B029091BE
:102B60003C02019690933C0280933B023EC08B3026
:102B70009105D9F50E9477068FEF9FE3A2E081507F
:102B80009040A040E1F700C000000E94E507D80196
:102B90008C918C5F80933A028DE290E00E94390420
:102BA0008FEF9FE3A2E081509040A040E1F700C08A
:102BB000000080E090E00E945E078FEF9FE3A2E0BC
:102BC00081509040A040E1F700C000000E94D40472
:102BD0008FEF9FE3A2E081509040A040E1F700C05A
:102BE00000000E9477060E947206219709F049CEE4
:102BF000DF91CF911F910F9108950F931F93CF9362
:102C0000DF93CAE0D0E002E112E040913B02509134
:102C10003C0281E061E023E030E00E94AD01809160
:102C20003B0290913C02009719F40E94E30373C1A8
:102C30008130910501F50E940B068FEF9FE3A2E022
:102C400081509040A040E1F700C000000E94D404F1
:102C500080913B0290913C02019690933C028093BC
:102C60003B028FEF9FE3A2E081509040A040E1F74C
:102C700000C000004DC182309105A9F40E94770682
:102C80008FEF9FE3A2E081509040A040E1F700C0A9
:102C9000000080913B0290913C02019690933C028F
:102CA00080933B0235C18330910511F580E090E0BF
:102CB0000E94D4068FEF9FE3A2E081509040A04095
:102CC000E1F700C000000E94D4048FEF9FE3A2E070
:102CD00081509040A040E1F700C0000080913B028D
:102CE00090913C02019690933C0280933B0210C16C
:102CF0008430910509F046C0D8018C9180933A0246
:102D000088E76CE30E94D00380E090E00E941907FE
:102D10008FEF9FEFA0EE81509040A040E1F700C000
:102D200000000E94C0078DE290E00E9448048FEFEF
:102D30009FE3A2E081509040A040E1F700C0000076
:102D400080E090E00E948F078FEF9FE3A2E0815028
:102D50009040A040E1F700C000000E94D4048FEF33
:102D60009FE3A2E081509040A040E1F700C0000046
:102D700080913B0290913C02019690933C0280939B
:102D80003B02C6C08530910531F58CE368E70E94AF
:102D9000D00380E090E00E9419078FEF9FE3A2E04C
:102DA00081509040A040E1F700C000000E94D40490
:102DB0008FEF9FE3A2E081509040A040E1F700C078
:102DC000000080913B0290913C02019690933C025E
:102DD00080933B029DC086309105A9F40E9477063E
:102DE0008FEF9FE3A2E081509040A040E1F700C048
:102DF000000080913B0290913C02019690933C022E
:102E000080933B0285C08730910569F580E090E0B2
:102E10000E94D4068FEF9FE3A2E081509040A04033
:102E2000E1F700C000000E9426058FEF9FE3A2E0BB
:102E300081509040A040E1F700C000000E94D404FF
:102E40008FEF9FE3A2E081509040A040E1F700C0E7
:102E5000000080913B0290913C02019690933C02CD
:102E600080933B0255C088309105A9F40E947706F3
:102E70008FEF9FE3A2E081509040A040E1F700C0B7
:102E8000000080913B0290913C02019690933C029D
:102E900080933B023DC089309105D1F50E947706B1
:102EA0008FEF9FE3A2E081509040A040E1F700C087
:102EB00000000E94E507D8018C9180933A028DE2D0
:102EC00090E00E9439048FEF9FE3A2E08150904090
:102ED000A040E1F700C0000080E090E00E945E07A3
:102EE0008FEF9FE3A2E081509040A040E1F700C047
:102EF00000000E94D4048FEF9FE3A2E08150904035
:102F0000A040E1F700C000000E9477060E94720610
:102F1000219709F07ACEDF91CF911F910F910895FB
:102F20000F931F93CF93DF93CAE0D0E004E112E048
:102F300040913B0250913C0281E061E023E030E0AF
:102F40000E94AD0180913B0290913C02009719F4E0
:102F50000E94E30374C18130910501F50E940B06C4
:102F60008FEF9FE3A2E081509040A040E1F700C0C6
:102F700000000E94D40480913B0290913C02019693
:102F800090933C0280933B028FEF9FE3A2E081503D
:102F90009040A040E1F700C000004EC18230910592
:102FA000A9F40E9477068FEF9FE3A2E08150904042
:102FB000A040E1F700C0000080913B0290913C02EC
:102FC000019690933C0280933B0236C18330910579
:102FD00011F580E090E00E9419078FEF9FE3A2E0D7
:102FE00081509040A040E1F700C000000E94D4044E
:102FF0008FEF9FE3A2E081509040A040E1F700C036
:10300000000080913B0290913C02019690933C021B
:1030100080933B0211C18430910509F046C0D8016C
:103020008C9180933A0288E76CE30E94D00380E0A1
:1030300090E00E94D4068FEF9FEFA0EE8150904069
:10304000A040E1F700C000000E94C0078DE290E0C0
:103050000E9439048FEF9FE3A2E081509040A0408E
:10306000E1F700C0000080E090E00E945E078FEF73
:103070009FE3A2E081509040A040E1F700C0000033
:103080000E94D4048FEF9FE3A2E081509040A040C3
:10309000E1F700C0000080913B0290913C02019654
:1030A00090933C0280933B02C7C08530910531F577
:1030B0008CE368E70E94D00380E090E00E9419074B
:1030C0008FEF9FE3A2E081509040A040E1F700C065
:1030D00000000E94D4048FEF9FE3A2E08150904053
:1030E000A040E1F700C0000080913B0290913C02BB
:1030F000019690933C0280933B029EC086309105DE
:10310000A9F40E9477068FEF9FE3A2E081509040E0
:10311000A040E1F700C0000080913B0290913C028A
:10312000019690933C0280933B0286C087309105C4
:1031300069F580E090E00E94D4068FEF9FE3A2E063
:1031400081509040A040E1F700C000000E94260599
:103150008FEF9FE3A2E081509040A040E1F700C0D4
:1031600000000E94D4048FEF9FE3A2E081509040C2
:10317000A040E1F700C0000080913B0290913C022A
:10318000019690933C0280933B0256C08830910593
:10319000A9F40E9477068FEF9FE3A2E08150904050
:1031A000A040E1F700C0000080913B0290913C02FA
:1031B000019690933C0280933B023EC0893091057A
:1031C000D9F50E9477068FEF9FE3A2E081509040EF
:1031D000A040E1F700C000000E94E507D8018C91F3
:1031E0008C5F80933A028DE290E00E9439048FEF69
:1031F0009FE3A2E081509040A040E1F700C00000B2
:1032000080E090E00E945E078FEF9FE3A2E0815094
:103210009040A040E1F700C000000E94D4048FEF6E
:103220009FE3A2E081509040A040E1F700C0000081
:103230000E9477060E947206219709F079CEDF91ED
:10324000CF911F910F9108950F931F93CF93DF9309
:10325000CCE0D0E006E112E040913B0250913C020C
:1032600081E061E023E030E00E94AD0180913B020B
:1032700090913C02009719F40E94E303A4C18130AD
:10328000910501F50E940B068FEF9FE3A2E08150AC
:103290009040A040E1F700C000000E94D40480915B
:1032A0003B0290913C02019690933C0280933B023A
:1032B0008FEF9FE3A2E081509040A040E1F700C073
:1032C00000007EC182309105A9F40E9477068FEF3D
:1032D0009FE3A2E081509040A040E1F700C00000D1
:1032E00080913B0290913C02019690933C02809326
:1032F0003B0266C18330910511F580E090E00E94A9
:1033000019078FEF9FE3A2E081509040A040E1F7C2
:1033100000C000000E94D4048FEF9FE3A2E0815020
:103320009040A040E1F700C0000080913B029091E6
:103330003C02019690933C0280933B0241C1843051
:103340009105A9F40E9477068FEF9FE3A2E08150D8
:103350009040A040E1F700C0000080913B029091B6
:103360003C02019690933C0280933B0229C1853038
:10337000910509F046C0D8018C9180933A0288E704
:103380006CE30E94D00380E090E00E94D4068FEFAF
:103390009FEFA0EE81509040A040E1F700C00000F8
:1033A0000E94C0078DE290E00E9439048FEF9FE3F6
:1033B000A2E081509040A040E1F700C0000080E012
:1033C00090E00E945E078FEF9FE3A2E08150904063
:1033D000A040E1F700C000000E94D4048FEF9FE3FB
:1033E000A2E081509040A040E1F700C00000809131
:1033F0003B0290913C02019690933C0280933B02E9
:10340000DFC086309105A9F40E9477068FEF9FE315
:10341000A2E081509040A040E1F700C00000809100
:103420003B0290913C02019690933C0280933B02B8
:10343000C7C08730910531F58CE368E70E94D0035F
:1034400080E090E00E9419078FEF9FE3A2E0815097
:103450009040A040E1F700C000000E94D4048FEF2C
:103460009FE3A2E081509040A040E1F700C000003F
:1034700080913B0290913C02019690933C02809394
:103480003B029EC088309105A9F40E9477068FEF19
:103490009FE3A2E081509040A040E1F700C000000F
:1034A00080913B0290913C02019690933C02809364
:1034B0003B0286C08930910569F580E090E00E946A
:1034C000D4068FEF9FE3A2E081509040A040E1F747
:1034D00000C000000E9426058FEF9FE3A2E081500C
:1034E0009040A040E1F700C000000E94D4048FEF9C
:1034F0009FE3A2E081509040A040E1F700C00000AF
:1035000080913B0290913C02019690933C02809303
:103510003B0256C08A309105A9F40E9477068FEFCE
:103520009FE3A2E081509040A040E1F700C000007E
:1035300080913B0290913C02019690933C028093D3
:103540003B023EC08B309105D9F50E9477068FEF84
:103550009FE3A2E081509040A040E1F700C000004E
:103560000E94E507D8018C918C5F80933A028DE22E
:1035700090E00E9439048FEF9FE3A2E081509040D9
:10358000A040E1F700C0000080E090E00E945E07EC
:103590008FEF9FE3A2E081509040A040E1F700C090
:1035A00000000E94D4048FEF9FE3A2E0815090407E
:1035B000A040E1F700C000000E9477060E9472065A
:1035C000219709F049CEDF91CF911F910F91089576
:1035D0002F923F924F925F926F927F928F929F9223
:1035E000AF92BF92CF92DF92EF92FF920F931F9311
:1035F000CF93DF930E9463040E94D6000E943E0195
:1036000089E10E9474048EE10E948D0483E00E948F
:1036100061038093320282E00E9461038093310251
:1036200081E00E94610380933002909132029132D6
:1036300008F401C190913102913208F4FCC081324A
:1036400028F4F9C021960F5F1F4F2BC001E010E056
:10365000C0E0D0E0EE24FF24E3940F2EF4E12F2EFF
:10366000F2E03F2EF02D0F2EF0E14F2EF2E05F2E14
:10367000F02D0F2EFCE06F2EF2E07F2EF02D0F2E9E
:10368000F8E08F2EF2E09F2EF02D0F2EF4E0AF2EFB
:10369000F2E0BF2EF02D0F2EF0E0CF2EF2E0DF2E65
:1036A000F02DCE01209769F4F6012081318121159A
:1036B0003105B9F0F0923C02E0923B020E94F20721
:1036C000C1CFC130D10569F4F501208131812115C7
:1036D0003105B9F0F0923C02E0923B020E94AB0946
:1036E000B1CF8230910569F4F40120813181211537
:1036F0003105B9F0F0923C02E0923B020E94110BBE
:10370000A1CF8330910569F4F30120813181211526
:103710003105B9F0F0923C02E0923B020E94700C3D
:1037200091CF8430910569F4F20120813181211516
:103730003105B9F0F0923C02E0923B020E94080E83
:1037400081CF8530910569F4F10120813181211506
:103750003105C1F0F0923C02E0923B020E94AA0FB8
:1037600071CF8630910571F4E8E1F2E0208131817A
:1037700021153105C1F0F0923C02E0923B020E941B
:103780001C1160CF8730910571F4ECE1F2E02081EB
:10379000318121153105C1F0F0923C02E0923B02EB
:1037A0000E948E124FCF8830910571F4E0E2F2E072
:1037B0002081318121153105C1F0F0923C02E09267
:1037C0003B020E9439143ECF8930910571F4E4E246
:1037D000F2E02081318121153105B9F0F0923C02EF
:1037E000E0923B020E94FD152DCF8A30910569F4CD
:1037F000E8E2F2E0808191810097C9F0F0923C020A
:10380000E0923B020E9490171DCF8B30910579F416
:10381000ECE2F2E080819181009749F081E090E054
:1038200090933C0280933B020E94241904C00C3008
:1038300011050CF407CF0E94C40580E090E0DF91F1
:10384000CF911F910F91FF90EF90DF90CF90BF909D
:10385000AF909F908F907F906F905F904F903F9030
:103860002F9008955058BB27AA270ED04DC13ED1A6
:1038700030F043D120F031F49F3F11F41EF433C1F6
:103880000EF4E095E7FB29C1E92F4FD180F3BA1779
:10389000620773078407950718F071F49EF567C1F6
:1038A0000EF4E0950B2EBA2FA02D0B01B90190015B
:1038B0000C01CA01A0011124FF27591B99F0593F9F
:1038C00050F4503E68F11A16F040A22F232F342FE7
:1038D0004427585FF3CF469537952795A795F04035
:1038E0005395C9F77EF41F16BA0B620B730B840B4A
:1038F000BAF09150A1F0FF0FBB1F661F771F881F02
:10390000C2F70EC0BA0F621F731F841F48F4879559
:1039100077956795B795F7959E3F08F0B3CF939548
:10392000880F08F09927EE0F9795879508950CD08A
:10393000EBC0E3D040F0DAD030F021F45F3F19F073
:10394000CCC0511115C1CFC0F0D098F39923C9F361
:103950005523B1F3951B550BBB27AA276217730795
:10396000840738F09F5F5F4F220F331F441FAA1F49
:10397000A9F333D00E2E3AF0E0E830D09150504009
:10398000E695001CCAF729D0FE2F27D0660F771FB7
:10399000881FBB1F261737074807AB07B0E809F099
:1039A000BB0B802DBF01FF2793585F4F2AF09E3F2E
:1039B000510568F092C0DCC05F3FECF3983EDCF349
:1039C000869577956795B795F7959F5FC9F7880FA7
:1039D000911D9695879597F90895E1E0660F771FF9
:1039E000881FBB1F621773078407BA0720F0621B8A
:1039F000730B840BBA0BEE1F88F7E095089504D083
:103A00006894B111B5C0089598D088F09F5790F090
:103A1000B92F9927B751A0F0D1F0660F771F881FF3
:103A2000991F1AF0BA95C9F712C0B13081F09FD032
:103A3000B1E008959CC0672F782F8827B85F39F0D0
:103A4000B93FCCF3869577956795B395D9F73EF452
:103A500090958095709561957F4F8F4F9F4F0895FA
:103A6000E89409C097FB3EF4909580957095619518
:103A70007F4F8F4F9F4F9923A9F0F92F96E9BB27CE
:103A80009395F695879577956795B795F111F8CF4A
:103A9000FAF4BB0F11F460FF1BC06F5F7F4F8F4FB5
:103AA0009F4F16C0882311F096E911C0772321F0AB
:103AB0009EE8872F762F05C0662371F096E8862F43
:103AC00070E060E02AF09A95660F771F881FDAF79A
:103AD000880F9695879597F9089597F99F6780E8DD
:103AE00070E060E008959FEF80EC089500240A9450
:103AF0001616170618060906089500240A941216C9
:103B00001306140605060895092E0394000C11F4FB
:103B1000882352F0BB0F40F4BF2B11F460FF04C0A8
:103B20006F5F7F4F8F4F9F4F089557FD9058440F01
:103B3000551F59F05F3F71F04795880F97FB991F0C
:103B400061F09F3F79F087950895121613061406C9
:103B5000551FF2CF4695F1DF08C016161706180656
:103B6000991FF1CF86957105610508940895E89431
:103B7000BB2766277727CB0197F908950BD0C4CFD1
:103B8000B5DF28F0BADF18F0952309F0A6CFABCF48
:103B90001124EECFCADFA0F3959FD1F3950F50E02B
:103BA000551F629FF001729FBB27F00DB11D639FEF
:103BB000AA27F00DB11DAA1F649F6627B00DA11D95
:103BC000661F829F2227B00DA11D621F739FB00D3B
:103BD000A11D621F839FA00D611D221F749F3327AB
:103BE000A00D611D231F849F600D211D822F762F44
:103BF0006A2F11249F5750408AF0E1F088234AF041
:103C0000EE0FFF1FBB1F661F771F881F915050408C
:103C1000A9F79E3F510570F060CFAACF5F3FECF34C
:103C2000983EDCF3869577956795B795F795E79578
:103C30009F5FC1F7FE2B880F911D9695879597F989
:103C40000895FA01EE0FFF1F30962105310599F115
:103C50006115710561F48038BFE39B0749F16894F1
:103C60009038810561F08038BFEF9B0741F09923C0
:103C700042F5FF3FE1053105210511F1E894089473
:103C8000E795D901AA2329F4AB2FBE2FF85FD0F313
:103C900010C0FF5F70F4A695E0F7F73950F019F007
:103CA000FF3A38F49F779F930CD00F9007FC905801
:103CB00008953EF018CF60E070E080E89FE308953B
:103CC0004FE79F775F934F933F932F939ED02F9112
:103CD0003F914F915F9152DF05C019F40EF0FDCE78
:103CE00046CF01CF2ADFC8F39638C0F707F80F9206
:103CF000E8942BE33AEA48EB5FE74EDF0F920F922E
:103D00000F924DB75EB70F92C0D0E4EEF0E016D040
:103D10004F915F91EF91FF91E595EE1FFF1F49F0E5
:103D2000FE57E0684427EE0F441FFA95E1F74195EE
:103D3000550B32D00F9007FE26C00895DF93CF9326
:103D40001F930F93FF92EF92DF927B018C01689497
:103D500005C0DA2EEF011EDFFE01E894A591259142
:103D6000359145915591AEF3EF018EDDFE0197013E
:103D7000A801DA9479F7DF90EF90FF900F911F91EF
:103D8000CF91DF9108959B01AC0160E070E080E885
:103D90009FE3CDCDA2CEACC0D0DEE8F39923D9F31A
:103DA000940F511DBBF39150504094F059F088236B
:103DB00032F0660F771F881F91505040C1F79E3F29
:103DC000510544F7880F911D9695879597F90895A9
:103DD0005F3FACF0983E9CF0BB2786957795679542
:103DE000B79508F4B1609395C1F7BB0F58F711F47C
:103DF00060FFE8CF6F5F7F4F8F4F9F4FE3CFB8CE0D
:103E00000EF076C070CE689468CE97DEC8F3992322
:103E1000D1F3C6F3DF93CF931F930F93FF92C92F74
:103E2000DD2788232AF02197660F771F881FDAF78E
:103E300020E030E040E85FEB9FE3883920F0803EEF
:103E400030F021968F770FDDECE0F1E003C00BDD61
:103E5000E9E3F1E073DF8B01BE01EC01FB2E6F574C
:103E600071097595771F880B990BFCDD28E132E706
:103E700041E35FE38FDEAF2D9801AE01FF900F911C
:103E80001F91CF91DF9100DD3FCEFA01DC01AA0F37
:103E9000BB1F9B01AC01BF5728F4222733274427BF
:103EA00050781FC0B75188F4AB2F00244695379542
:103EB0002795011CA395D2F3002069F0220F331F30
:103EC000441FB395DAF30DD0CDCC61307105A0E875
:103ED0008A07B94630F49B01AC016627772788270B
:103EE0009078309621F02083318342835383089564
:103EF0009F3F31F0915020F4879577956795B7955E
:103F0000880F911D9695879597F90895AA1BBB1B5D
:103F100051E107C0AA1FBB1FA617B70710F0A61BC9
:103F2000B70B881F991F5A95A9F780959095BC01EA
:083F3000CD010895F894FFCFC4
:103F3800010001000000020002000300000004006C
:103F4800010005000000060003000700000008004B
:103F58000300090000000A0000000B0004000C0028
:00000001FF
